:100000000A128A11EC2FFF1B0D2883137F18831708
:100010000008840A0319FF0A080000308A00040857
:10002000840A82070034483475346D3469343A34B4
:1000300020342534753420342534253420342034BC
:10004000203420342034203400342D343E34203405
:1000500043344C3445344134523420342034203439
:100060002034203420342034203400345234653499
:100070006C34613479343A3420344F344E34203483
:1000800020342034203420342034203400345434BC
:1000900065346D3470343A3420342534753420346A
:1000A00043342034203420342034203420340034AD
:1000B000523465346C34613479343A3420344F34FA
:1000C0004634463420342034203420342034203444
:1000D00000344C3469346734683474343A3420342E
:1000E00025343034343475342034203420342034F2
:1000F00020340034443448345434313431342034DE
:100100004534723472346F347234213420342034E4
:1001100020342034003453346534633475347234FD
:100120006934743479342034533479347334743406
:1001300065346D342034003453346D34613472349A
:100140007434203448346F346D3465342034503482
:1001500072346F342E342E3400342D343E34203437
:100160004D344F34543449344F344E3420344434B5
:10017000453454344534433454340034F000701C56
:10018000C228C328C728831203130816CA2883125B
:1001900003130812F01CCD28CE28D0288816D128A9
:1001A0008812701DD428D528D7280817D8280813F6
:1001B000F01DDB28DC28DE288817DF2888130800DC
:1001C0004B3083120313CE004908CF000030D0001B
:1001D000D101D201D801D9014F30C4000030C5008F
:1001E0004A08C6004E30C7000A128A15DD270A12D7
:1001F0008A118312031351084907CD004D0884006A
:10020000831380010800F401F501701C08290929F5
:100210000F297208F4070318F50A7308F50701306F
:100220000310F20DF30DFF3E031D102901300310E2
:10023000F10CF00CFF3E031D172970087104031D1B
:100240002229232905297508F1007408F000080007
:1002500083120313A601A70145292508A300A401C1
:100260002308F0002408F1002108F2002208F3001E
:100270000A128A11CE240A128A1101308312031342
:10028000A6070318A70A0030A70726082007A3001F
:100290002308840083130008A5002508031D5129A5
:1002A00052292D290800F300831203130910730843
:1002B000F10004300310F10CFF3E031D5A297108B0
:1002C0000A128A11BE200A128A118312031389149A
:1002D0000330F2009730F100F10B6C29F20B6C291E
:1002E000712983120313891073080A128A11BE2020
:1002F0000A128A118312031389140330F200973013
:10030000F100F10B8129F20B812986298312031355
:1003100089100800F3008312031309147308F10015
:1003200004300310F10CFF3E031D912971080A12DD
:100330008A11BE200A128A11831203138914033012
:10034000F2009730F100F10BA329F20BA329A829A1
:1003500083120313891073080A128A11BE200A122D
:100360008A118312031389140330F2009730F100CD
:10037000F10BB829F20BB829BD2983120313891098
:100380000800700871040319C629C729F42901302F
:10039000F400D32901300310F00DF10DFF3E031DD1
:1003A000CB290130F407F11FD629D729CA297108B2
:1003B0007302031DDD2970087202031CE029E12984
:1003C000E7297008F2027108031CF303F3020130FD
:1003D0000310F10CF00CFF3E031DE8290130F4027C
:1003E000031DF329F429D7297308F1007208F000DE
:1003F0000800F001062AFC290130F0076530700280
:10040000031C032A042A062A0030312A831203130C
:10041000071A0B2A0C2AFB29F001182A0F2A01308F
:10042000F00765307002031C162A172A182A042ABE
:1004300083120313071E1D2A1E2A0E2AF0012A2AE0
:10044000212A0130F00765307002031C282A292A6E
:100450002A2A042A83120313071A2F2A302A202A51
:1004600001300800F901FA01572A79087407F700EA
:100470007508F6000318F60AF91F3F2AF6037608F6
:10048000F800780883120313FF00770884000A122B
:100490008A1103200A128A110A128A118A210A1269
:1004A0008A110130F9070318FA0A0030FA077908AF
:1004B0007407F7007508F6000318F60AF91F612A99
:1004C000F6037608F800780883120313FF00770814
:1004D00084000A128A1103200A128A11003A031DAD
:1004E000722A732A352A0800F401F5017008710494
:1004F00003197B2A7C2AB12A0130F600882A0130B0
:100500000310F00DF10DFF3E031D802A0130F607A8
:10051000F11F8B2A8C2A7F2A01300310F40DF50D70
:10052000FF3E031D8D2A71087302031D992A70086E
:100530007202031C9C2A9D2AA42A7008F2027108E8
:10054000031CF303F302741401300310F10CF00CDC
:10055000FF3E031DA52A0130F602031DB02AB12A71
:100560008C2A7508F1007408F0000800F301F1010D
:10057000F201C42ABB2A0130F20765307202031C63
:10058000C22AC32AC42ACA2A83120313071EC92AED
:10059000CA2ABA2A1330F000F00BCC2ACF2A8312D1
:1005A0000313071ED42AD52AD92A0314730DF30086
:1005B000DD2A7308F0007007F300F201E92AE02A4F
:1005C0000130F20765307202031CE72AE82AE92AA3
:1005D000EF2A83120313071AEE2AEF2ADF2A0130CB
:1005E000F10708307102031CF62AF72AB82A7308AB
:1005F000080000300A128A11BE200A128A11343013
:10060000F700F130F600F60B032BF70B032B082B4A
:1006100003300A128A1153210A128A110D30F70091
:10062000FB30F600F60B122BF70B122B172B0330B7
:100630000A128A1153210A128A111D30F7009130D3
:10064000F600F60B212BF70B212B03300A128A112F
:1006500053210A128A1102300A128A1153210A12F6
:100660008A1128300A128A1153210A128A110C3079
:100670000A128A1153210A128A1106300A128A11AB
:1006800053210A128A110A128A154F270A128A1157
:100690000800F901FA017608840083130008840039
:1006A0000A128A110D200A128A112A3A031D592BA7
:1006B0005A2B862B76088400013080077708840047
:1006C0000008FF00023080077F0884000008F9005E
:1006D000840A0008FA00972B7A08F1007908F000E4
:1006E0000A30F2000030F3000A128A1103210A12C4
:1006F0008A1178087007F90000300318013071077B
:10070000FA0076088400013083138007760884009D
:10071000000884000A128A110D200A128A11D03EA4
:10072000F8000A307802031C962B972B6C2B7A0862
:10073000F7007908F600080083120313611CA12B4F
:10074000A22BAD2B2A08A0002808A1002908A2008E
:100750000A128A1128210A128A1183120313AC1F6C
:10076000B22BB32BB52BAB01AC01AD01AE01CF2B3E
:100770002030F0000030F100831203132808F2004B
:100780002908F3000A128A11CE240A128A110130B4
:1007900083120313AD070318AE0A0030AE072E080C
:1007A000803AFD002C08803A7D02031DD92B2B08CE
:1007B0002D02031CDC2BDD2BB82B831203136118D5
:1007C000E22BE32BEE2B2A08A0002808A100290821
:1007D000A2000A128A1128210A128A1108000A129C
:1007E0008A158B270A128A110A128A11F9210A1214
:1007F0008A11003A0319FD2BFE2B4E2C0A128A1186
:10080000B6220A128A1183120313A3000A128A1154
:10081000B6220A128A1183120313A0000A128A1147
:10082000B6220A128A1183120313A4000A128A1133
:10083000B6220A128A1183120313A1000A128A1126
:10084000B6220A128A1183120313A200230820077A
:10085000F400F501F50D24087407F60000300318C4
:1008600001307507F70021087607F80000300318FB
:1008700001307707F900220878067904031D412C1E
:10088000422C4E2C230883160313A000831203135B
:10089000240883160313A10001304F2C00300800F8
:1008A000013083120313B3005E08B5005D08B40085
:1008B0001F30B6000030B70083160313C101962C19
:1008C000FF30B6070318B70AFF30B7073608A23E55
:1008D00084000A30F0000030F1003208F3003108E3
:1008E000F2000A128A11C1210A128A117008303EE0
:1008F0008313800083120313B301FF30B40703187E
:10090000B50AFF30B5070A30F0000030F1003208B8
:10091000F3003108F2000A128A1174220A128A11B5
:10092000710883120313B2007008B10083123608F5
:10093000370403199C2C9D2CBB2C31083204031D59
:10094000A22CA32C602C3308031DA72CA82C602CF0
:100950003508803AFF0080307F02031DB12C013042
:100960003402031CB42CB52CBB2C83120313E118E6
:10097000BA2CBB2C602C831203132F08A80030085C
:10098000A9003608A23EAA003508AC003408AB0026
:100990000A128A119C230A128A1108007208730431
:1009A0000319D32CD42CDA2C72087304031DD92C10
:1009B000DA2CE12C70080A128A1527270A128A11EC
:1009C000672D7208093EF40073080318013E003ECB
:1009D000F500740884008317751C83130008F60063
:1009E000840A0008F700760877040319F82CF92C1C
:1009F0002B2D7208093EF40073080318013E003ED7
:100A0000F500740884008317751C83130008F60032
:100A1000840A0008F7007208023EF8007308031801
:100A2000013E003EF900780884008317791C831387
:100A30000008FA00840A0008FB007B08803AFC00EA
:100A40007708803A7C02031D272D76087A02031866
:100A50002A2D2B2D672D720884008317731C831396
:100A60000008F400840A0008F5007208023EF6004F
:100A700073080318013E003EF700760884008317D0
:100A8000771C831300087407F9007508F800031831
:100A9000F80A801F4C2DF8037808FA0079088400C2
:100AA00083177A1C8313700880007208023EF400DA
:100AB00073080318013E003EF50074088400831794
:100AC000751C831301308007840A0318800A08000C
:100AD000831203133A0884008313000884000A1267
:100AE0008A110D200A128A11253A031D782D792DBD
:100AF000202E3A08840001308007DD01DE0100303D
:100B0000E100FF30DF00FF30E000C2019D2DE11465
:100B10003A088400013080079D2D0130C2009D2DD0
:100B20003A088400000884000A128A110D200A1273
:100B30008A11303A0319872D8D2D42080319A12DF2
:100B4000A22D902D3A08F6003B08F7000A128A11F0
:100B500049230A128A11770883120313DE007608EC
:100B6000DD00DE1FB42DB52DBB2D6114DD09DE09BE
:100B7000DD0A0319DE0A3A08840083130008C30063
:100B8000430884000A128A110D200A128A11753A4C
:100B9000031DCB2DCC2DF82D3B0884000008FF0051
:100BA000023080077F0884000008BE00840A000825
:100BB000BF003A0884004308013E8000ED2D38084C
:100BC000AF003908B0003F08B2003E08B1000A1279
:100BD0008A1150240A128A11392E430884000A12FD
:100BE0008A110D200A128A11753A0319DF2DF82D8A
:100BF0003A088400000884000A128A110D200A12A3
:100C00008A11253A031D052E062E182E3A08840057
:100C1000013080072530F0000030F1003808F20084
:100C20003908F3000A128A11CE240A128A11392EC9
:100C3000831203133A088400013083138007392E8E
:100C40003A088400000884000A128A110D200A1252
:100C50008A11BC00BD013C08F0003D08F1003808D5
:100C6000F2003908F3000A128A11CE240A128A11FE
:100C7000182E08000F30831603138805FC308905F1
:100C80000A128A1546270A128A110A128A152F2774
:100C90000A128A110A128A1536270A128A110A12B2
:100CA0008A11F9220A128A11F401F40A01300A1297
:100CB0008A1571270A128A118A30F4008030F500F3
:100CC0000A128A1132220A128A110B30831203137C
:100CD000DC002630DB005D30DA00DA0B6D2EDB0B3A
:100CE0006D2EDC0B6D2E0A128A154F270A128A11FF
:100CF00083160313D701D801D6010130D5000A129B
:100D00008A15C1270A128A11710883160313D400A9
:100D10007008D300F430F4000130F5000A128A158F
:100D2000A6270A128A110A128A155F270A128A1147
:100D30008316031357085804031D9F2EA02EA72EB9
:100D4000D6010A128A154F270A128A11C82E1430AA
:100D500057065804031DAD2EAE2EBE2E0130D60010
:100D60000A128A154F270A128A110A128A11EF23D2
:100D70000A128A1183160313D500C82E283057068D
:100D80005804031DC42EC52EC82E0230D600A12E35
:100D9000831603135608031DCE2ECF2E192FF401F0
:100DA000F40A01300A128A1571270A128A11C23018
:100DB00083120313C9005730CA0083160313540863
:100DC00083120313CC0083160313530883120313F7
:100DD000CB000A128A11E0200A128A11C230F400F4
:100DE0000030F5000A128A1132220A128A11F40127
:100DF000F40A02300A128A1571270A128A11831224
:100E00000313081C042F052F0F2F2430F40080300B
:100E1000F5000A128A1132220A128A11C02F4630B6
:100E2000F4008030F5000A128A1132220A128A1167
:100E3000C02F5603031D1D2F1E2F842F5503031D86
:100E4000222F232F722FF401F40A01300A128A157F
:100E500071270A128A11C23083120313C900353078
:100E6000CA0083160313210883120313DA00DB017F
:100E70005A08CB005B08CC000A128A11E0200A1243
:100E80008A11C230F4000030F5000A128A113222B1
:100E90000A128A11F401F40A02300A128A15712723
:100EA0000A128A11C23083120313C9000130CA002A
:100EB00083160313200883120313DA00DB015A0898
:100EC000CB005B08CC000A128A11E0200A128A11BA
:100ED000C230F4000030F5000A128A1132220A12E0
:100EE0008A11C02FF401F40A01300A128A15712701
:100EF0000A128A116830F4008030F5000A128A1153
:100F000032220A128A11C02F02305606031D892F81
:100F10008A2FC02FF401F40A01300A128A157127B2
:100F20000A128A117930F4008030F5000A128A1111
:100F300032220A128A11F401F40A02300A128A15C6
:100F400071270A128A110A128A1528270A128A1191
:100F5000013A031DAC2FAD2FB72F9B30F40080302A
:100F6000F5000A128A1132220A128A11C02F133098
:100F7000F4008030F5000A128A1132220A128A1116
:100F8000013083160313D7070318D80A0030D80797
:100F90005808803AFF0080307F02031DD12F3C307B
:100FA0005702031CD42FD52FD92F83160313D70133
:100FB000D801023083120313DC000430DB00B930A7
:100FC000DA00DA0BE12FDB0BE12FDC0BE12FE82F4E
:100FD0007F2E0A128A11002883120313DD01DE011D
:100FE000DF01E001E1018313A0308400C2300A1266
:100FF0008A153E270A128A1183010A128A113A2E93
:101E4E00080083120313070EF000700C013908000E
:101E5E008316031308108312031308100800831649
:101E6E00031387168810831203138810080064006A
:101E7E008001840A04060319003404063F2F8430BF
:101E8E00831603139F004130831203139F00080033
:101E9E0001300A128A1153210A128A150630F500F2
:101EAE003030F400F40B592FF50B592F00000800B9
:101EBE000A128A1528270A128A15013A031D682F5D
:101ECE00692F6D2F831203138814702F831203133F
:101EDE0088100800F6007603031D762F772F7B2FD0
:101EEE0074087F3EF500842F02307606031D802F86
:101EFE00812F842F7408BF3EF50075080A128A11CF
:101F0E0053210A128A15080083160313071283122F
:101F1E00031307122F30F100BF30F000F00B952F96
:101F2E00F10B952F9A2F8312031307161330F0001F
:101F3E00F00B9F2FA22F83160313071608000A1209
:101F4E008A15C1270A128A157108F7007008F60063
:101F5E0077087502031DB52F760874020318B82F83
:101F6E00B92FBD2F831203130814C02F831203132E
:101F7E0008100800C530831203139F059F15063005
:101F8E00F3003030F200F20BCA2FF30BCA2F000011
:101F9E00831203131F151F19D52FD62FD22F1E08EC
:101FAE00F100831603131E08F000080083120313BA
:101FBE004608C800EF2F4408B8004508B90048305D
:101FCE00BA004708BB000A128A1168250A128A1540
:101FDE0083120313480884000A128A110D200A1274
:101FEE008A15003A031DFC2FFD2FE22FC401C501F7
:021FFE000800D9
:02400E00723FFF
:00000001FF
